:1000000000308A003E280000FF00030E8301A1009B
:100010000A08A0008A010408A2007708A300780853
:10002000A4007908A5007A08A600831383120B1E8A
:100030001B288B182C28220884002308F70024088A
:10004000F8002508F9002608FA0020088A00210E89
:100050008300FF0E7F0E09008A110A122F288014D8
:10006000831606148312061C3A28831608100130E2
:10007000831288068B108A110A121B2883161F14FC
:100080009F141F159F1107309C0083131F30830599
:1000900001308600003088008801831288018316B1
:0E00A000011783120B16C0308B045528630025
:02400E00723FFF
:00000001FF
;PIC16F877A
;CRC=EAB0  CREATED="12-May-22 19:12"
