:1000000000308A007C2800003E3084008313000802
:10001000031917280630F800F701F70B0D28F80B25
:100020000C287B30F700F70B1328800B0A280800F8
:1000300083181D284A3084008313F701F801F90161
:10004000FA01CA01CB01CC01CD014908480447049B
:10005000460403195B282030CE000310C20DC30DE7
:10006000C40DC50DCA0DCB0DCC0DCD0D49084D02EB
:10007000031D442848084C02031D442847084B022E
:10008000031D442846084A02031C55284608CA0294
:100090004708031C470FCB024808031C480FCC023B
:1000A0004908031C490FCD020314F70DF80DF90D93
:1000B000FA0DCE0B2D284A088000840A4B088000D8
:1000C000840A4C088000840A4D08800008003F081C
:1000D000F8013E0203186F283E08F7007B28F7015D
:1000E0000830C000BE0DF70D3F0877020318F70077
:1000F000F80DC00B7228080083161F149F141F15DB
:100100009F1107309C0083131F3083058312A001C9
:10011000A1010F308316860000308800870083120B
:10012000A601A701A801A901AA01AB01AF01AE0177
:10013000AD01AC01B301B201B101B001FC30B400BA
:100140006030B500DA30B600F230B7006630B80083
:10015000B630B900BE30BA00E030BB00FE30BC00A3
:10016000F630BD0001308700343028078400831347
:100170000008BE0088000530BE0004200230870061
:1001800034302907840083130008BE00880005303E
:10019000BE00042004308700343026078400831317
:1001A0000008BE0088000530BE0004201030870023
:1001B00034302707840083130008BE008800053010
:1001C000BE000420FF30B007031CB107031CB207B8
:1001D000031CB30783143E30840083133308C50027
:1001E0003208C4003108C3003008C200C901C80188
:1001F000C7012530C60018204108C5004008C400CA
:100200003F08C3003E08C200C208031D5929C308A5
:10021000031D5929C408031D5929C508031D59295F
:100220000130AC070318AD0A0319AE0A0319AF0A6F
:1002300083143E30840083132F08C5002E08C400A9
:100240002D08C3002C08C200C901C801C7013C30F9
:10025000C60018203E08AB002B08BE000A30BF00C5
:1002600067207708A8002B08BE000A30BF0067206F
:100270007808A90083102F08C5002E08C4002D0897
:10028000C3002C08C200C901C801C7013C30C60028
:1002900018207708AA002A08BE000A30BF0067208D
:1002A0007708A6002A08BE000A30BF006720780839
:0602B000A700B228630064
:02400E00323F3F
:00000001FF
;PIC16F877A
;CRC=CB3A  CREATED="31-Mar-22 23:22"
