:1000000004308A008B2C00000A108A100A11820723
:1000100028340C34013406348C29E931E135EC34D0
:10002000EB1E0000393084008313000803192528D3
:100030000630F800F701F70B1B28F80B1A287B3065
:10004000F700F70B2128800B1828080040182A28F1
:1000500008122B280816C0182F2888123028881656
:1000600040193428081335280817C019392888136F
:100070003A288817000007150230F700F70B3E28D2
:100080004128000007110800C1010030081A0130A2
:10009000C1040030881A0130F7000310F70D77080B
:1000A000C1040030081B0130F700F70DF70DFC30DC
:1000B000F7057708C1040030881B0130F700F70D01
:1000C000F70DF70DF830F7057708C1044108F8007F
:1000D00008002011200883168700831220102008B2
:1000E000831687008312A0102008831687008312CE
:1000F00007108316081688160817881783128714A6
:1001000000000715000044207808C0000711000017
:1001100007158A288B28000044207808BF000711A3
:10012000831608128812081388138312400EF700F2
:10013000F030F70577083F04F8007808BF00BF1BD0
:100140007928BD08031DA6280710A728071400005A
:100150008710000007113E0EBF000F30BF053F089B
:10016000C00026203E080F39BF00C000262008002E
:10017000831608128812081388138312201120088E
:1001800083168700831220102008831687008312AD
:10019000A01020088316870083120710871007110C
:1001A0000F30B90012200130AB002B08033C031CB8
:1001B000E1280330C00026200530B9001220AB0A28
:1001C000D5280230C00026200530B9001220AB012E
:1001D0002B08033C031CF5282B080420AC00BD01B0
:1001E0002C08BE006920AB0AE8288A110A12C42C28
:1001F0003A0BFB28FE284030BB00FF28BB01013032
:100200003902BB073B088038BC00BD013C08BE007A
:10021000692008003808073A031918290B3A03190E
:100220001D29063A03192529023A03192B293029D9
:100230000130B900BA00F8203529BD010130BE00F7
:1002400069200230B900122035290130B90002308E
:10025000BA00F8203529BD011030BE0069203529CB
:100260000130BD003808BE00692008000B08AB0053
:100270008B13831603178C170C14000000008312D5
:100280000C087F3903197D290313AC0003170D08EF
:100290000313AD0003170F080313AE002C08B800BA
:1002A0000A212D0803178D0003132E0803178F0052
:1002B00083168C170C140000000083120C0D0E0D19
:1002C0007F3903197D290313AC0003170D080313AD
:1002D000AD0003170F080313AE002C08B8000A2165
:1002E0002D0803178D0003132E0803178F008D0AA6
:1002F00003198F0A0313392903170313AB1B8B1739
:100300008A110A12D72C8E30F7002C08F8002B081F
:10031000F900FA01F808031D97297908F800F90196
:100320000830F702F808031D9729F7019F290310E9
:10033000F81B9E29F90DF80DF7039729F8138A1178
:100340000A12E52C38080319122AC0003C080319C8
:10035000122AC0070318B3297F30C002031C122AD7
:100360000319122AB7298130C0070318122A40083E
:10037000F700F801F901FA013908C400C4173A0876
:10038000C3003B08C2001830C000C101421CE02974
:100390003F08FA07031CD229F90A031DD229F80ADB
:1003A0000319C1173E08F907031CD929F80A0319D4
:1003B000C1173D08BA00BA173A08F8070318C11761
:1003C000C10DF80CF90CFA0CC40CC30CC20C0310D0
:1003D000C00BC5290130F7070318122AF81BF729AB
:1003E000C40DFA0DF90DF80DF7030319122AC41FF5
:1003F000082AFA0A031D082AF90A031D082AF80A1E
:10040000031D082AF80CF90CFA0CF70A0319122A32
:100410003908C1003D08C106C11F102AF817162A65
:10042000F813162AF701F801F901FA0108008030E3
:100430008318B406B901BA013008B8003408B80608
:100440002F080319072BB700F70033080319102BE7
:10045000B7020319AC2A031C6A2A3408BD00BD1771
:100460003508BC003608BB00BA010310BD0CBC0C3B
:10047000BB0CBA0CB70B342AB81F412A3914242BF1
:10048000391037103916323084008313392B391262
:10049000B81B542A371C5F2ABD0CBC0CBB0CBA0C11
:1004A000F70A03191F2B5F2ABD1B622A0310BA0D1E
:1004B000BB0DBC0DBD0DF70303191F2B542A3917B3
:1004C000CC2A39133008B800B81F682ABD17182B7A
:1004D000BD13182B3308B700F7002F08B7023008F8
:1004E000BD00BD173108BC003208BB00BA010310C3
:1004F000BD0CBC0CBB0CBA0CB70B762AB81F832AF8
:10050000B914242BB9103710B91636308400831370
:10051000392BB912B81B962A371CA12ABD0CBC0C6A
:10052000BB0CBA0CF70A03191F2BA12ABD1BA42A66
:100530000310BA0DBB0DBC0DBD0DF70303191F2B26
:10054000962AB917CC2AB9133408B800B81FAA2ABA
:10055000BD17182BBD13182B3408BD00BD17350867
:10056000BC003608BB00B81FB92ABD133915242BAF
:100570003911BA013710323084008313392BB81B7C
:10058000E22A3008B800371CCC2ABD0CBC0CBB0CCE
:10059000BA0CF70A03191F2BBA1FDD2ABB0A031D69
:1005A000DD2ABC0A031DDD2ABD0A031DDD2ABD0CA0
:1005B000BC0CBB0CF70A03191F2B391B612AB91B92
:1005C000A32A012B8030BD06BD1FEA2A242B340844
:1005D000B800F72A3008B800BD08031DF72ABC0888
:1005E000031DF72ABB08031DF72AF701182BBD1BB3
:1005F000012B0310BA0DBB0DBC0DBD0DF70BF72A77
:100600001F2BB81F052BBD17182BBD13182B330834
:10061000F7003408BD003508BC003608BB00182BB5
:100620002F08F7003008BD003108BC003208BB00BD
:100630003D08F8003C08F9003B08FA00572BF70189
:10064000F801F901FA01572BBA01BB09BC09BD0930
:10065000BA09BA0A031D322BBB0A031D322BBC0A8E
:100660000319BD0A3918402AB918822A3919B82A3B
:10067000E72A0008BB07031C432BBC0A031D432BBE
:10068000BD0A0319371484030008BC07031C4B2B55
:10069000BD0A0319371484030008801F803ABD0780
:1006A00003183714391A472AB91A892ABF2A8A1116
:1006B0000A12242D83185F2B403084008313F70126
:1006C000F801F901FA01C001C101C201C3013F08EB
:1006D0003E043D043C0403199D2B2030C40003104C
:1006E000B80DB90DBA0DBB0DC00DC10DC20DC30DB6
:1006F0003F084302031D862B3E084202031D862B42
:100700003D084102031D862B3C084002031C972B29
:100710003C08C0023D08031C3D0FC1023E08031CFB
:100720003E0FC2023F08031C3F0FC3020314F70D24
:10073000F80DF90DFA0DC40B6F2B40088000840AE8
:1007400041088000840A42088000840A430880002F
:1007500008000408B0002F08B2000319C82B2E08A7
:10076000BB002D08BA002C08B9002B08B800BF0147
:10077000BE012030BD008230BC00A2217A08AE004C
:100780007908AD007808AC007708AB00B20BAF2B4E
:100790002E08BB002D08BA002C08B9002B08B800A1
:1007A0003808B63CB800FA013908BC00B917031084
:1007B000B90CBA0CBB0CFA0CF90CF80CF70CB80B12
:1007C000D72BBC1FEE2BF709F809F909FA09F70A2C
:1007D0000319F80A0319F90A0319FA0A7A08AE008C
:1007E0007908AD007808AC007708AB00AE1F052C87
:1007F000B003B016AB09AC09AD09AE09AB0A0319D9
:10080000AC0A0319AD0A0319AE0A3B30B7009A309F
:10081000B600CA30B500B4010A30B2002F0803197F
:10082000B00A83142B30840083132E08BB002D08DC
:10083000BA002C08B9002B08B8003708BF003608EA
:10084000BE003508BD003408BC005A237808F708FC
:10085000031D3D2C2F0A320203193D2C30080319C9
:100860003F2C0F3932020319372C03186F2CB01BA1
:100870006F2C301B3F2C20306B2C2030B005B01E6D
:100880004D2CB0122F08031DB0037708B0002D3097
:10089000B8000A213008F700B0012F083202031D0A
:1008A0005B2C7708B0002E30B8000A213008F70022
:1008B0002030B00500303030B01E6B2CB0122F0845
:1008C000031DB0037708B0002D30B8000A213008AE
:1008D000F700B0013030F7077708B8000A2183101D
:1008E0003708BB003608BA003508B9003408B8002C
:1008F000BF01BE01BD010A30BC005A237A08B7000F
:100900007908B6007808B5007708B400B20B112C4E
:100910008A110A123E2DFF30A00083161F149F1467
:100920001F159F1107309C0083131F308305091288
:1009300083129412013094000030831694008312C5
:100940009001F8009200003083169200F03083127C
:1009500097059D05013083168500003087008800CB
:100960000C17C03083128B0483161F1383121F13BE
:100970009F1783169F1783121F1483161F109F1033
:100980001F159F118312B8280030F8001F08C739BF
:1009900078049F002030F700F70BCC2CCF2C000000
:1009A0000C3003178D0000308F00031336291F15FC
:1009B0001F19D82C83161E088312A1001E08A2003E
:1009C0002208AC002108AB008329F730BB00FF30C0
:1009D000BA007F30B9007330B8007A08BF007908D8
:1009E000BE007808BD007708BC00A2217A08A600E6
:1009F0007908A5007808A4007708A3002608BB00A2
:100A00002508BA002408B9002308B800BF01BE01B8
:100A10007A30BD008830BC00A2217A08AE00790887
:100A2000AD007808AC007708AB0083107A08B200FC
:100A30007908B1007808B0007708AF00B601B501B9
:100A4000B4018030B300172A7A08AA007908A900F7
:100A50007808A8007708A7000A30B9000130BA006A
:100A6000F820043084002A08AE002908AD002808C8
:100A7000AC002708AB000130AF00A92B2730B8002D
:100A80000A214330B8000A216430B9001220D72C63
:020A9000630001
:02400E00723FFF
:00000001FF
;PIC16F877A
;CRC=F3A4  CREATED="17-Haz-22 13:54"
