:1000000000308A008E280000FF00030E8301A1004B
:100010000A08A0008A010408A2007708A300780853
:10002000A4007908A5007A08A600831383128B1D0B
:100030001B280B182C28220884002308F70024080A
:10004000F8002508F9002608FA0020088A00210E89
:100050008300FF0E7F0E09008A110A124328283000
:10006000840083130008031942280630F800F701C2
:10007000F70B3828F80B37287B30F700F70B3E28B2
:10008000800B352808000130A8002F2083160616A3
:100090008312061E5628831608128312081608308B
:1000A000A700FA30A8002F20A70B51288316861628
:1000B0008312861E662883168812831288160830DB
:1000C000A700FA30A8002F20A70B61288316061777
:1000D0008312061F76288316081383120817083028
:1000E000A700FA30A8002F20A70B712883168617C7
:1000F0008312861F86288316881383128817083078
:10010000A700FA30A8002F20A70B812883168801AA
:10011000831288010B108A110A121B2883161F14E0
:100120009F141F159F1107309C0083131F308305F8
:10013000F0308600003088008801831288018B151A
:08014000C0308B04A22863000B
:02400E00723FFF
:00000001FF
;PIC16F877A
;CRC=0B34  CREATED="11-May-22 21:56"
