:1000000000308A009728000026080739F700260CE0
:10001000F800F80CF80C1F30F80578082807840061
:10002000831329188317F801F80AF70A1828F80D1E
:10003000F70B1728A708031920287808800423281D
:10004000F80978088005080026080739F700260C0B
:10005000F800F80CF80C1F30F80578082707840022
:100060008313281883170008F800F70A3828F80CBB
:10007000F70B372808002630840083130008031983
:100080004E280630F800F701F70B4428F80B4328F8
:100090007B30F700F70B4A28800B41280800E83036
:1000A000831687008312A0000030A000831687010A
:1000B00001308312870020102008831687008312E6
:1000C00007141430A6003B200030A00083168701DF
:1000D000023083128700A010200883168700831245
:1000E00087141430A6003B200030A000831687013F
:1000F00004308312870020112008831687008312A2
:1001000007151430A6003B200030A000831687019D
:100110001030831287002012200883168700831274
:1001200007161430A6003B208A110A12E629FF3078
:10013000A00083161F149F141F159F1107309C00E9
:1001400083131F308305003088000F308600831230
:10015000A1018316880183128801831686138312F6
:100160008617831686158312861DBC288316880180
:10017000603083128800DC28831606158312061D62
:10018000C72883168801663083128800DC2883160E
:1001900086148312861CD22883168801E0308312CD
:1001A0008800DC28831606148312061CDC288316BC
:1001B00088019E308312880083168613831286136B
:1001C0008316061383120617831686158312861D5F
:1001D000EF2883168801DA30831288000F298316EE
:1001E00006158312061DFA2883168801B63083127D
:1001F00088000F29831686148312861C052983160E
:100200008801FE30831288000F298316061483129A
:10021000061C0F2983168801FC3083128800831680
:10022000061383120613831686128312861683160C
:1002300086158312861D222983168801F2308312C7
:1002400088004229831606158312061D2D29831660
:100250008801BE30831288004229831686148312D7
:10026000861C382983168801F630831288004229BB
:10027000831606148312061C4229831688018E30C9
:100280008312880083168612831286128316061242
:1002900083120616831686158312861D552983162A
:1002A0008801EE30831288007529831606158312A3
:1002B000061D6029831688013E3083128800752947
:1002C000831686148312861C6B29831688019C3042
:1002D000831288007529831606148312061C75295B
:1002E000831688017A3083128800831606128312DF
:1002F00006122208A6000130A700A9018030A8003C
:1003000004202208A600A801A7012420781CE529C2
:100310002308A6000130A700A9018030A80004200E
:100320002308A600A801A7012420781CE529240899
:10033000A6000130A700A9018030A80004202408ED
:10034000A600A801A7012420781CE5292508A600FD
:100350000130A700A9018030A80004202508A600CC
:10036000A801A7012420781CE529A108031DC029A4
:10037000FF308316880083120808A500A10AE1292E
:10038000210BCA29FF308316880083120808A400B5
:10039000A10AE1292108023C031DD629FF3083165A
:1003A000880083120808A300A10AE1292108033C60
:1003B000031DE129FF308316880083120808A2007C
:1003C000A10A2108043C0319A1014F282330A600EB
:0603D0003B20A928630098
:02400E00723FFF
:00000001FF
;PIC16F877A
;CRC=DA5F  CREATED="28-Haz-22 00:19"
