:1000000001308A004D290000FF00030E8301A1008A
:100010000A08A0008A010408A2007708A300780853
:10002000A4007908A5007A08A600831383128B1E0A
:100030001B280B192C28220884002308F700240809
:10004000F8002508F9002608FA0020088A00210E89
:100050008300FF0E7F0E09008A110A127E28831882
:100060003428653084008313F701F801F901FA019F
:10007000E501E601E701E801640863046204610444
:10008000031972282030E9000310DD0DDE0DDF0DAD
:10009000E00DE50DE60DE70DE80D64086802031DAF
:1000A0005B2863086702031D5B2862086602031D64
:1000B0005B2861086502031C6C286108E502620880
:1000C000031C620FE6026308031C630FE702640867
:1000D000031C640FE8020314F70DF80DF90DFA0D77
:1000E000E90B442865088000840A66088000840AB9
:1000F00067088000840A6808800008000130C9078A
:100100000318CA0A0319CB0A0319CC0A49083C3C54
:10011000031D9F28CA08031D9F28CB08031D9F2885
:10012000CC08031D9F280130B5070318B60A031930
:10013000B70A0319B80ACC01CB01CA01C90183145B
:100140005930840083133808E0003708DF00360890
:10015000DE003508DD00E401E301E2013C30E100AE
:100160002F205C08BC005B08BB005A08BA00590885
:10017000B90083145930840083133C08E0003B0825
:10018000DF003A08DE003908DD00E401E301E201A6
:100190000A30E1002F205C08B0005B08AF005A086D
:1001A000AE005908AD0083103C08E0003B08DF00BA
:1001B0003A08DE003908DD00E401E301E2010A301B
:1001C000E1002F207A08B4007908B3007808B20063
:1001D0007708B10083103808E0003708DF003608E0
:1001E000DE003508DD00E401E301E2013C30E1001E
:1001F0002F207A08C0007908BF007808BE00770871
:10020000BD0083145930840083134008E0003F0888
:10021000DF003E08DE003D08DD00E401E301E2010D
:100220000A30E1002F205C08C4005B08C3005A08B4
:10023000C2005908C10083104008E0003F08DF00F9
:100240003E08DE003D08DD00E401E301E2010A3082
:10025000E1002F207A08C8007908C7007808C60096
:100260007708C500D93081000B118A110A121B28AA
:10027000583084008313000803194C290130F8001A
:10028000F701F70B4129F80B40294A30F700F70B2B
:1002900047294A29800B3E290800B001AF01AE0171
:1002A000AD01B401B301B201B101B801B701B601AA
:1002B000B501BC01BB01BA01B901C001BF01BE015A
:1002C000BD01C401C301C201C101C801C701C6010A
:1002D000C501CC01CB01CA01C90183161F149F14AB
:1002E0001F159F1107309C0083131F308305831255
:1002F000A701A8010430D700FA30D8003821D70B65
:100300007C2983160108C0390738810083128B16B7
:10031000C0308B04FC30CD006030CE00DA30CF002E
:10032000F230D0006630D100B630D200BE30D300FB
:10033000E030D400FE30D500F630D6000030831611
:10034000870088000130860083120716071587147E
:100350000714D930810007160711871007104D3098
:10036000450784008313461883170008D7008800C8
:100370000530D800382107150712871007104D30B7
:10038000410784008313421883170008D7008800B0
:100390000530D800382187140712071107104D3097
:1003A000310784008313321883170008D7008800B0
:1003B0000530D800382107140711871007124D3077
:1003C0002D07840083132E1883170008D700880098
:1003D0000530D8003821061CF4290A30D80038210D
:0C03E000B801B701B601B501AB296300FC
:02400E00323F3F
:00000001FF
;PIC16F877A
;CRC=3011  CREATED="14-Nis-22 09:28"
