:1000000000308A00042800004B30A0009B30A10083
:1000100083161F149F141F159F1107309C00831314
:100020001F308305091283129412013094000030AE
:10003000831694008312900183161F149F141F15BA
:100040009F1183121F10F0309D05FF30831686002C
:1000500000308700831207110C3097000030F80041
:10006000063892002108831692004B3083129500C7
:10007000061C402806183A280830A00720089500DA
:10008000861C4828861842280830A00220089500BF
:10009000861D552886194A28A10A0030F80006381E
:1000A00092002108831692008312061D6228061909
:1000B0005728A1030030F800063892002108831663
:0800C00092008312382863004E
:02400E00723FFF
:00000001FF
;PIC16F877A
;CRC=C16D  CREATED="02-Haz-22 10:28"
