:1000000000308A0099280000FF00030E8301A10040
:100010000A08A0008A010408A2007708A300780853
:10002000A4007908A5007A08A600831383128B1E0A
:100030001B280B192C28220884002308F700240809
:10004000F8002508F9002608FA0020088A00210E89
:100050008300FF0E7F0E09008A110A1243283330F5
:10006000840083130008031942280630F800F701C2
:10007000F70B3828F80B37287B30F700F70B3E28B2
:10008000800B3528080064308100AE012E08073C43
:10009000031C952864308100803088060230B2004D
:1000A000FA30B3002F20B20B5028013088060430FC
:1000B000B200C830B3002F20B20B59284030880658
:1000C0000230B200FA30B3002F20B20B62280230A7
:1000D00088060430B200C830B3002F20B20B6B2862
:1000E000203088060230B200FA30B3002F20B20B65
:1000F000742804308806B200C830B3002F20B20B39
:100100007C28103088060230B200FA30B3002F206D
:10011000B20B8528083088060430B200C830B3001E
:100120002F20B20B8E28AE0A46280B118A110A1214
:100130001B2883161F149F141F159F1107309C0046
:1001400083131F3083058312A801A9010030831691
:1001500088008312880183160108C039063881009F
:1001600083128B16C0308B043D308100A7018B1B9E
:10017000A7178B130B15A71B8B172F08683C0319A8
:06018000AF01B628630088
:02400E00323F3F
:00000001FF
;PIC16F877A
;CRC=4BBD  CREATED="12-Nis-22 23:11"
